:1000000002308A00032A00000A108A100A118207AF
:10001000313432343334343435343634373438349C
:1000200039342A34303423340A105039E539E93769
:10003000EE32A03AEE30203AE531EC3000000C0010
:100040000A105039E539E937EE32A03AEE30203A5D
:10005000E531EC3000010C000A2AE531EC302038A3
:10006000F232F3346F376132611D20002C3084008E
:100070008313000803194A280130F800F701F70B31
:100080003F28F80B3E284A30F700F70B4528482850
:10009000800B3C280800320EF039F7000F300805BD
:1000A0007704880000000814552808100800080884
:1000B000F700080E0F39F8000800831608108810A2
:1000C0000811831288100F3083160805F038880055
:1000D0008312081500000814000057207808B200A9
:1000E000081000000814000057207808B10008101C
:1000F0000F308316080588008312320EF700F030A7
:10010000F70577083104F8007808B100B11B6328BF
:100110002F1C88102F1888140000081100000810E8
:10012000300EB1000F30B1053108B2004B2030085D
:100130000F39B100B2004B2008002C0BA028A328D7
:100140004030AD00A428AD0101302B02AD072D08D1
:100150008038AE00AF012E08B0005D2008002A08EC
:10016000073A0319BD280B3A0319C228063A0319A6
:10017000CA28023A0319D028D5280130AB00AC00B8
:100180009D20DA28AF010130B0005D200230AC00C4
:100190003620DA280130AB000230AC009D20DA288E
:1001A000AF011030B0005D20DA280130AF002A081E
:1001B000B0005D2008000B08A7008B1383160317FF
:1001C0008C170C140000000083120313A71B8B175D
:1001D00003170C087F3903192F290313A7000317EE
:1001E0000D080313A80003170F080313A90027081D
:1001F000AA00AF20280803178D000313290803174E
:100200008F0003130B08AA008B13831603178C1798
:100210000C140000000083120313AA1B8B17031792
:100220000C0D0E0D7F3903192F290313A700031797
:100230000D080313A80003170F080313A9002708CC
:10024000AA00AF20280803178D00031329080317FD
:100250008F008D0A03198F0A0313DB28031703137A
:1002600008002830A8000C30A9000130AA00063090
:10027000AB000810881008110F308316080588009D
:100280000810881008110F308312AC00362001309E
:10029000A7002708033C031C55290330B2004B205C
:1002A0000530AC003620A70A49290230B2004B20A5
:1002B0000530AC003620A7012708033C031C6C293D
:1002C00028302707840083130008AC00AF012C08F6
:1002D000B0005D20A70A5C298316811314308312B5
:1002E00003178D0000308F000313DB208A110A12E0
:1002F000162AA701A00A2008213C0318FA2923087E
:1003000003198929013A03198F29033A03199529F9
:100310009A29DE3083168600831286009A29BE3021
:1003200083168600831286009A297E308316860003
:1003300083128600211CA62906081E391E3C031DB7
:10034000A52921102208A700A201F92906081E39B3
:100350001E3C0319F42906080239031DB129A8011E
:10036000C52906080439031DB8290130A800C5298C
:1003700006080839031DBF290230A800C529060850
:100380001039031DC5290330A8002808A90003302F
:10039000AA00F701F801290803102A18F707F70C3B
:1003A000F80CAA18F707F70CF80C2A19F707F70C3E
:1003B000F80CAA19F707F70CF80C2A1AF707F70C2C
:1003C000F80CAA1AF707F70CF80C2A1BF707F70C1A
:1003D000F80CAA1BF707F70CF80C23087807042081
:1003E000F800A2002114F929A30A2308033C0319E9
:1003F000A301A001FE308316860083122708F800AF
:100400008A110A12172A03081F39830083161F1442
:100410009F141F159F1107309C0083138312A001A6
:100420002110A201A301A401A5013129792978088D
:10043000A600A6080319402A26082A3C031D2F2AD5
:100440001F3003178D0000308F000313DB20203096
:1004500003178D0000308F000313DB20402A2B3060
:1004600003178D0000308F000313DB202C3003179F
:100470008D0000308F000313DB202608AA00AF2078
:04048000162A6300D5
:02400E00713F00
:00000001FF
;PIC16F877A
;CRC=7925  CREATED="23-abr.-24 01:07"
