:1000000001308A00BF2900000A108A100A118207F5
:1000100028340C34013406340A108A100A1182077D
:100020003134323433344134343435343634423478
:1000300037343834393443342A3430342334443474
:100040000C00D4326336611D2000293084008313F4
:100050000008031938280630F800F701F70B2E289E
:10006000F80B2D287B30F700F70B3428800B2B285A
:10007000080030183D2808123E280816831608127A
:100080008312B018452888124628881683168812CD
:10009000831230194D2808134E28081783160813A9
:1000A0008312B01955288813562888178316881389
:1000B00000008811831288150230F700F70B5E28C4
:1000C00061280000831688118312881108008316A6
:1000D0000811831208116330F700F70B6D287028A0
:1000E000AD080319782883160811831208157C2897
:1000F00083160811831208110000831688118312D9
:1001000088112E0EAF000F30AF052F08B000392038
:100110002E080F39AF00B0003920080083160811EF
:100120008312081183168811831288110F30A900D9
:100130002520A5012508023C031CA6280330B00099
:1001400039200530A9002520A50A9A280230B000E0
:100150003920A5012508033C031CBA2825080420E2
:10016000A600AD012608AE0067200530A9002520B5
:10017000A50AAA288A110A12D0298A110A12D1299D
:100180002A0BC328C6284030AB00C728AB0101307A
:100190002902AB072B088038AC00AD012C08AE005B
:1001A0006720080028080C3A0319DD28063A0319CD
:1001B000E528023A0319EB28F028AD010130AE0022
:1001C00067200230A9002520F5280130A90002305F
:1001D000AA00C020F528AD011030AE006720F52838
:1001E0000130AD002808AE00672008000B08A5000C
:1001F0008B13831603178C170C1400000000831256
:100200000313A51B8B1703170C087F3903194A2901
:100210000313A50003170D080313A60003170F0807
:100220000313A7002508A800D220260803178D0075
:100230000313270803178F0003130B08A8008B1361
:10024000831603178C170C1400000000831203138D
:10025000A81B8B1703170C0D0E0D7F3903194A29A4
:100260000313A50003170D080313A60003170F08B7
:100270000313A7002508A800D220260803178D0025
:100280000313270803178F008D0A03198F0A03131E
:10029000F628031703138A110A12DF29A501A00A01
:1002A0002008213C0318AE292308FC3E03187129BD
:1002B000043EB729FE30831686008312860071291A
:1002C000FD3083168600831286007129FB30831669
:1002D0008600831286007129F73083168600831208
:1002E0008600211C7D290608F039F03C031D7C297D
:1002F00021102208A500A201AD290608F039F03C22
:100300000319A82906081039031D8829A6019C296C
:1003100006082039031D8F290130A6009C290608F4
:100320004039031D96290230A6009C290608803911
:10033000031D9C290330A600260DF700F70DFC30A5
:10034000F705770823070C20F800A2002114AD2937
:10035000A30A2308043C0319A301A001FF3083165C
:10036000860083122508F8008A110A12E0290A146F
:100370008A100A1182075A29602966296C29030804
:100380001F39830083161F149F141F159F110730F8
:100390009C0083138312A0012110A201A3018E28C7
:1003A000BD288316811301308312A900AA00C02042
:1003B000213003178D0000308F000313F6284E29DB
:1003C0007808A400A4080319ED290830A900013019
:1003D000AA00C0202408A800D2208316D3296300D5
:02400E007A3FF7
:00000001FF
;PIC16F877A
;CRC=F228  CREATED="02-jul-20 14:42"
